:020000040800F2
:1000000000500020E50600086D060008750600088F
:100010007D060008850600088D0600080000000027
:10002000000000000000000000000000950600082D
:10003000A106000800000000AD060008B90600088F
:100040002D0700082D0700082D0700082D070008C0
:100050002D0700082D0700082D0700082D070008B0
:100060002D0700082D0700082D0700082D070008A0
:100070002D0700082D0700082D0700082D07000890
:100080002D0700082D0700082D0700082D07000880
:100090002D0700082D0700082D0700082D07000870
:1000A000C50600082D0700082D0700082D070008C9
:1000B0002D0700082D0700082D0700082D07000850
:1000C0002D0700082D0700082D0700082D07000840
:1000D0002D0700082D0700082D0700082D07000830
:1000E0002D0700082D0700082D070008000000005C
:1000F0000000000000000000000000000000000000
:0C01000000000000000000005FF808F1A3
:10010C0010B5054C237833B9044B13B10448AFF345
:10011C0000800123237010BD84000020000000002B
:10012C00E826000808B5034B1BB103490348AFF39D
:10013C00008008BD0000000088000020E8260008B0
:10014C0080B582B000AF78607B681B680F4A934221
:10015C0017D10F4B1B781A460E4B9B5C1A464FF46B
:10016C0000610D4801F01CF9094B1B780133DAB220
:10017C00074B1A70064B1B78772B02D9044B0022C5
:10018C001A7000BF0837BD4680BD00BF002C01406F
:10019C001A01002000000020000C014080B500AFC7
:1001AC0000F0C0FA00F074F800F074F900F0CCF82C
:1001BC0000F008F9124800F013FC124801F0ECFDB5
:1001CC000F4800F0BBFC03469AB20F4B1A800E4B43
:1001DC001B88182B02D80C4B19221A800A4B1B882F
:1001EC00B3F57A6F03D9084B4FF47A621A80064B39
:1001FC001B88184600F00AF8642000F0F5FADFE7D7
:10020C00A0000020D00000201801002080B483B092
:10021C0000AF0346FB80FB88182B32D9FB88B3F563
:10022C007A6F2ED8194B1B681A6A41F211131340BE
:10023C00002B0FD1154B1B681A6A40F24443134034
:10024C00002B07D1114B1B681A68104B1B6822F04E
:10025C0001021A60FB885A1E0C4B1B68DA62FB8881
:10026C00013B1A46094BDA60084B1B6800225A62A4
:10027C00064B1B681A68054B1B6842F001021A609A
:10028C0000E000BF0C37BD4680BC7047D00000209A
:10029C0080B594B000AF07F128032822002118463E
:1002AC0002F0F0F907F1140300221A605A609A6008
:1002BC00DA601A613B1D00221A605A609A60DA609B
:1002CC000123BB624FF48033FB6200233B630123A9
:1002DC00BB6302237B644FF48033BB644FF4E013A5
:1002EC00FB6407F12803184601F072F80346002B53
:1002FC0001D000F01BF90F237B610223BB610023AB
:10030C00FB614FF480633B6200237B6207F11403B3
:10031C000221184601F0DEFA0346002B01D000F052
:10032C0005F902237B604FF44043FB603B1D1846EC
:10033C0001F02CFC0346002B01D000F0F7F800BFB5
:10034C005037BD4680BD000080B584B000AF3B1D6A
:10035C0000221A605A609A60184B194A1A60174B9F
:10036C0000229A60154B01221A73144B00221A7545
:10037C00124B4FF46022DA61104B00225A600F4B83
:10038C0001221A610D4800F053FA0346002B01D0EC
:10039C0000F0CCF800237B600123BB600323FB60DF
:1003AC003B1D1946054800F0D5FB0346002B01D038
:1003BC0000F0BCF800BF1037BD4680BDA000002087
:1003CC000024014080B58CB000AF07F1200300225F
:1003DC001A605A609A60DA6007F10C0300221A6006
:1003EC005A609A60DA601A613B1D00221A605A60EA
:1003FC00264B274A1A60254B40F2CF225A60234BDA
:10040C0000229A60214B6322DA60204B00221A6191
:10041C001E4B00225A611D4B00229A611B4801F0B1
:10042C006BFC0346002B01D000F080F84FF4805396
:10043C003B6207F120031946144801F0EFFD034617
:10044C00002B01D000F072F80023FB6000233B610D
:10045C0007F10C0319460D4801F0A7FE0346002BCB
:10046C0001D000F063F800237B600023BB603B1DD0
:10047C001946064802F096F80346002B01D000F00E
:10048C0055F800BF3037BD4680BD00BFD0000020FE
:10049C00002C014080B588B000AF07F1100300229A
:1004AC001A605A609A60DA601E4B9B691D4A43F0D1
:1004BC00200393611B4B9B6903F02003FB60FB68DB
:1004CC00184B9B69174A43F004039361154B9B69C6
:1004DC0003F00403BB60BB68124B9B69114A43F0E9
:1004EC00080393610F4B9B6903F008037B607B68E7
:1004FC0000224FF400610C4800F052FF4FF40063EF
:10050C003B6101237B610023BB610223FB6107F18B
:10051C0010031946044800F0BFFD00BF2037BD464C
:10052C0080BD00BF00100240000C014080B400AF41
:10053C0072B600BF00BFFDE780B485B000AF154BAD
:10054C009B69144A43F001039361124B9B6903F0BE
:10055C000103BB60BB680F4BDB690E4A43F0805351
:10056C00D3610C4BDB6903F080537B607B680A4BD7
:10057C005B68FB60FB6823F0E063FB60FB6843F0A7
:10058C008063FB60044AFB68536000BF1437BD46B0
:10059C0080BC7047001002400000014080B588B05C
:1005AC0000AF786007F1100300221A605A609A605D
:1005BC00DA607B681B68144A934221D1134B9B6908
:1005CC00124A43F400739361104B9B6903F400735C
:1005DC00FB60FB680D4B9B690C4A43F00403936171
:1005EC000A4B9B6903F00403BB60BB6801233B61AE
:1005FC0003237B6107F110031946054800F04CFDFD
:10060C0000BF2037BD4680BD0024014000100240D1
:10061C000008014080B584B000AF78607B681B682F
:10062C000D4A934213D10D4B9B690C4A43F4006362
:10063C0093610A4B9B6903F40063FB60FB68002227
:10064C000021182000F0F1FC182000F00AFD00BF7A
:10065C001037BD4680BD00BF002C01400010024089
:10066C0080B400AF00BFFDE780B400AF00BFFDE772
:10067C0080B400AF00BFFDE780B400AF00BFFDE762
:10068C0080B400AF00BFFDE780B400AF00BFBD4633
:10069C0080BC704780B400AF00BFBD4680BC7047C3
:1006AC0080B400AF00BFBD4680BC704780B500AFC2
:1006BC0000F07EF800BF80BD80B500AF024801F0AD
:1006CC00BDFB00BF80BD00BFD000002080B400AFD8
:1006DC0000BFBD4680BC7047FFF7F8FF0B480C49C4
:1006EC000C4A002302E0D458C4500433C4188C4282
:1006FC00F9D3094A094C002301E013600432A242E9
:10070C00FBD301F0C7FFFFF749FD70470000002045
:10071C00840000202C2700088400002020010020E9
:10072C00FEE7000080B500AF084B1B68074A43F09A
:10073C0010031360032000F06DFC0F2000F008F88C
:10074C00FFF7FAFE0023184680BD00BF00200240D0
:10075C0080B582B000AF7860124B1A68124B1B78D0
:10076C0019464FF47A73B3FBF1F3B2FBF3F318466B
:10077C0000F085FC0346002B01D001230EE07B68C2
:10078C000F2B0AD8002279684FF0FF3000F04DFC97
:10079C00064A7B681360002300E0012318460837E3
:1007AC00BD4680BD78000020800000207C00002029
:1007BC0080B400AF054B1B781A46054B1B681344DD
:1007CC00034A136000BFBD4680BC70478000002008
:1007DC001C01002080B400AF024B1B681846BD46BC
:1007EC0080BC70471C01002080B584B000AF7860DD
:1007FC00FFF7F0FFB8607B68FB60FB68B3F1FF3F6D
:10080C0005D00A4B1B781A46FB681344FB6000BFEB
:10081C00FFF7E0FF0246BB68D31AFA689A42F7D892
:10082C0000BF00BF1037BD4680BD00BF8000002058
:10083C0080B586B000AF78600023FB7500233B6168
:10084C000023BB600023FB607B68002B01D10123DC
:10085C00BEE07B689B68002B7B689B6A002B09D1F0
:10086C007B680022DA627B68002283F82420786897
:10087C00FFF794FE786800F0BFFA0346FB757B68BF
:10088C009B6A03F01003002B40F09980FB7D002B3A
:10089C0040F095807B689B6A23F4885323F0020315
:1008AC0043F002027B689A627B685A687B68DB695A
:1008BC001A437B681B7B5B001343BA681343BB6012
:1008CC007B689B68B3F5807F03D07B689B68012BAA
:1008DC0002D14FF4807300E000233A6913433B616B
:1008EC007B681B7D012B19D17B681B7B002B09D1ED
:1008FC007B689B69013B5A033B69134343F40063D8
:10090C003B610BE07B689B6A43F020027B689A6238
:10091C007B68DB6A43F001027B68DA627B681B68E8
:10092C005B6823F469417B681B683A690A435A6027
:10093C007B681B689A68284B13407A681268B96800
:10094C000B4393607B689B68B3F5807F03D07B6817
:10095C009B68012B04D17B681B69013B1B05FB6069
:10096C007B681B68DB6A23F470017B681B68FA6880
:10097C000A43DA627B681B689A68184B1340BA68A2
:10098C009A420BD17B680022DA627B689B6A23F067
:10099C00030343F001027B689A6218E07B689B6A50
:1009AC0023F0120343F010027B689A627B68DB6AC7
:1009BC0043F001027B68DA620123FB7507E07B6878
:1009CC009B6A43F010027B689A620123FB75FB7DE6
:1009DC0018461837BD4680BDFDF7E1FFFE0E1FFF20
:1009EC0080B584B000AF78600023FB737B6893F80C
:1009FC002430012B01D1022398E07B68012283F87B
:100A0C002420786800F09EF90346FB73FB7B002BD7
:100A1C0040F087807B689B6A23F4407323F00103CA
:100A2C0043F480727B689A627B681B68414A9342EC
:100A3C0005D1414B5B6803F47023002B15D17B6807
:100A4C009B6A23F480127B689A627B681B685B68E4
:100A5C0003F48063002B26D07B689B6A23F44053FD
:100A6C0043F480527B689A621DE07B689B6A43F476
:100A7C0080127B689A627B681B682F4A934204D071
:100A8C007B681B682B4A93420DD12B4B5B6803F49C
:100A9C008063002B07D07B689B6A23F4405343F49C
:100AAC0080527B689A627B689B6A03F48053002BAC
:100ABC0006D07B68DB6A23F006027B68DA6202E010
:100ACC007B680022DA627B68002283F824207B6832
:100ADC001B686FF002021A607B681B689B6803F44A
:100AEC006023B3F5602F13D17B681B68114A9342C6
:100AFC0005D1114B5B6803F47023002B08D17B6884
:100B0C001B689A687B681B6842F4A0029A600CE030
:100B1C007B681B689A687B681B6842F480129A6039
:100B2C0003E07B68002283F82420FB7B18461037F7
:100B3C00BD4680BD002801400024014080B483B034
:100B4C0000AF78607B681B68DB6C18460C37BD46C1
:100B5C0080BC704780B485B000AF786039600023EA
:100B6C00FB730023BB607B6893F82430012B01D10D
:100B7C000223DCE07B68012283F824203B685B685D
:100B8C00062B1CD87B681B68596B3B685A6813464C
:100B9C009B001344053B1F2202FA03F3DB4319406D
:100BAC003B6818683B685A6813469B001344053B26
:100BBC0000FA03F27B681B680A435A633CE03B680B
:100BCC005B680C2B1CD87B681B68196B3B685A68DC
:100BDC0013469B001344233B1F2202FA03F3DB430F
:100BEC0019403B6818683B685A6813469B001344CD
:100BFC00233B00FA03F27B681B680A431A631BE071
:100C0C007B681B68D96A3B685A6813469B0013447F
:100C1C00413B1F2202FA03F3DB4319403B6818687F
:100C2C003B685A6813469B001344413B00FA03F29D
:100C3C007B681B680A43DA623B681B68092B1CD96A
:100C4C007B681B68D9683B681A6813465B001344C1
:100C5C001E3B072202FA03F3DB4319403B689868FA
:100C6C003B681A6813465B0013441E3B00FA03F200
:100C7C007B681B680A43DA6019E07B681B6819699A
:100C8C003B681A6813465B001344072202FA03F30D
:100C9C00DB4319403B6898683B681A6813465B0055
:100CAC00134400FA03F27B681B680A431A613B6821
:100CBC001B68102B03D03B681B68112B32D17B684F
:100CCC001B681D4A934225D17B681B689B6803F403
:100CDC000003002B26D17B681B689A687B681B6815
:100CEC0042F400029A603B681B68102B1AD1134B1C
:100CFC001B68134AA2FB03239A0C13469B00134454
:100D0C005B00BB6002E0BB68013BBB60BB68002BB7
:100D1C00F9D107E07B689B6A43F020027B689A62FA
:100D2C000123FB737B68002283F82420FB7B18468D
:100D3C001437BD4680BC7047002401407800002069
:100D4C0083DE1B4380B584B000AF78600023FB606A
:100D5C000023BB607B681B689B6803F00103012BBD
:100D6C0040D07B681B689A687B681B6842F0010264
:100D7C009A601F4B1B681F4AA2FB03239B0CBB6092
:100D8C0002E0BB68013BBB60BB68002BF9D1FFF7ED
:100D9C0021FDF8601FE0FFF71DFD0246FB68D31A2A
:100DAC00022B18D97B681B689B6803F00103012B8D
:100DBC0011D07B689B6A43F010027B689A627B6857
:100DCC00DB6A43F001027B68DA627B68002283F8FD
:100DDC002420012307E07B681B689B6803F0010358
:100DEC00012BD8D1002318461037BD4680BD00BF5B
:100DFC007800002083DE1B4380B584B000AF7860A0
:100E0C000023FB607B681B689B6803F00103012BCC
:100E1C002ED17B681B689A687B681B6822F00102E4
:100E2C009A60FFF7D7FCF8601BE0FFF7D3FC024693
:100E3C00FB68D31A022B14D97B681B689B6803F0E0
:100E4C000103012B0DD17B689B6A43F010027B6878
:100E5C009A627B68DB6A43F001027B68DA620123E9
:100E6C0007E07B681B689B6803F00103012BDCD057
:100E7C00002318461037BD4680BD000080B485B0F5
:100E8C0000AF78607B6803F00703FB600C4BDB68FA
:100E9C00BB60BA684FF6FF031340BB60FB681A02D5
:100EAC00BB68134343F0BF6343F40033BB60044A95
:100EBC00BB68D36000BF1437BD4680BC704700BF11
:100ECC0000ED00E080B400AF044BDB681B0A03F0BC
:100EDC0007031846BD4680BC704700BF00ED00E01C
:100EEC0080B483B000AF0346FB7197F90730002B39
:100EFC000BDBFB7903F01F02064997F907305B09FE
:100F0C00012000FA02F241F8232000BF0C37BD4645
:100F1C0080BC704700E100E080B483B000AF0346B2
:100F2C003960FB7197F90730002B0ADB3B68DAB2AA
:100F3C000C4997F907301201D2B20B4483F8002305
:100F4C000AE03B68DAB20849FB7903F00F03043B73
:100F5C001201D2B20B441A7600BF0C37BD4680BCCE
:100F6C00704700BF00E100E000ED00E080B489B004
:100F7C0000AFF860B9607A60FB6803F00703FB61AF
:100F8C00FB69C3F10703042B28BF0423BB61FB6976
:100F9C000433062B02D9FB69033B00E000237B6181
:100FAC004FF0FF32BB6902FA03F3DA43BB681A4015
:100FBC007B699A404FF0FF317B6901FA03F3D94307
:100FCC007B680B40134318462437BD4680BC7047E2
:100FDC0080B582B000AF78607B68013BB3F1807F55
:100FEC0001D301230FE00A4A7B68013B53600F21B8
:100FFC004FF0FF30FFF790FF054B00229A60044B37
:10100C0007221A60002318460837BD4680BD00BF72
:10101C0010E000E080B582B000AF78607868FFF730
:10102C002DFF00BF0837BD4680BD80B586B000AF30
:10103C000346B9607A60FB7300237B61FFF742FFC4
:10104C0078617A68B9687869FFF790FF024697F97A
:10105C000F3011461846FFF75FFF00BF1837BD462B
:10106C0080BD80B582B000AF0346FB7197F90730A5
:10107C001846FFF735FF00BF0837BD4680BD80B569
:10108C0082B000AF78607868FFF7A2FF034618467D
:10109C000837BD4680BD000080B48BB000AF7860CF
:1010AC00396000237B6200233B6269E101227B6A89
:1010BC0002FA03F3FB613B681B68FA691340BB61DE
:1010CC00BA69FB699A4240F058813B685B689A4A5E
:1010DC0093425ED0984A934275D8984A934258D01E
:1010EC00964A93426FD8964A934252D0944A93426E
:1010FC0069D8944A93424CD0924A934263D8924A0C
:10110C00934246D0904A93425DD8122B2AD8122B88
:10111C0059D801A252F823F09F1100087911000848
:10112C008B110008CD110008D3110008D311000851
:10113C00D3110008D3110008D3110008D3110008F3
:10114C00D3110008D3110008D3110008D3110008E3
:10115C00D3110008D3110008D31100088111000825
:10116C0095110008794A934213D02CE03B68DB6858
:10117C003B6229E03B68DB6804333B6224E03B685C
:10118C00DB6808333B621FE03B68DB680C333B6277
:10119C001AE03B689B68002B02D104233B6213E0EE
:1011AC003B689B68012B05D108233B627B68FA697D
:1011BC001A6109E008233B627B68FA695A6103E013
:1011CC0000233B6200E000BFBB69FF2B01D87B68AA
:1011DC0001E07B6804337B61BB69FF2B02D87B6A1F
:1011EC009B0002E07B6A083B9B003B617B691A68B1
:1011FC000F213B6901FA03F3DB431A40396A3B695F
:10120C0001FA03F31A437B691A603B685B6803F0CD
:10121C008053002B00F0B1804D4B9B694C4A43F03E
:10122C00010393614A4B9B6903F00103BB60BB68EC
:10123C00484A7B6A9B08023352F82330FB607B6A76
:10124C0003F003039B000F2202FA03F3DB43FA685B
:10125C001340FB607B68404A934213D07B683F4A43
:10126C0093420DD07B683E4A934207D07B683D4A3F
:10127C00934201D1032306E0042304E0022302E09D
:10128C00012300E000237A6A02F0030292009340EB
:10129C00FA681343FB602F497B6A9B080233FA6898
:1012AC0041F823203B685B6803F48013002B06D0C5
:1012BC002D4B9A682C49BB6913438B6006E02A4B73
:1012CC009A68BB69DB43284913408B603B685B68B9
:1012DC0003F40013002B06D0234BDA682249BB69B8
:1012EC001343CB6006E0204BDA68BB69DB431E4935
:1012FC001340CB603B685B6803F40033002B06D0D3
:10130C00194B5A681849BB6913434B6006E0164BDE
:10131C005A68BB69DB43144913404B603B685B68FC
:10132C0003F48033002B21D00F4B1A680E49BB6994
:10133C0013430B6021E000BF00003210000031109D
:10134C0000002210000021100000121000001110EB
:10135C00001002400000014000080140000C014058
:10136C000010014000140140000401400B4B1A68AE
:10137C00BB69DB43094913400B607B6A01337B6219
:10138C003B681A687B6A22FA03F3002B7FF48EAE5B
:10139C0000BF00BF2C37BD4680BC70470004014025
:1013AC0080B483B000AF78600B467B8013467B70B3
:1013BC007B78002B03D07A887B681A6103E07B88EA
:1013CC001A047B681A6100BF0C37BD4680BC70479D
:1013DC0080B586B000AF78607B68002B01D101230B
:1013EC0072E27B681B6803F00103002B00F087801E
:1013FC00924B5B6803F00C03042B0CD08F4B5B6897
:10140C0003F00C03082B12D18C4B5B6803F4803374
:10141C00B3F5803F0BD1894B1B6803F40033002BD1
:10142C006CD07B685B68002B68D101234CE27B6835
:10143C005B68B3F5803F06D1804B1B687F4A43F451
:10144C00803313602EE07B685B68002B0CD17B4BE8
:10145C001B687A4A23F480331360784B1B68774AF5
:10146C0023F4802313601DE07B685B68B3F5A02F29
:10147C000CD1724B1B68714A43F4802313606F4B81
:10148C001B686E4A43F4803313600BE06B4B1B6894
:10149C006A4A23F480331360684B1B68674A23F451
:1014AC00802313607B685B68002B13D0FFF792F9E5
:1014BC00386108E0FFF78EF902463B69D31A642BBA
:1014CC0001D9032300E25D4B1B6803F40033002BAE
:1014DC00F0D014E0FFF77EF9386108E0FFF77AF9F5
:1014EC0002463B69D31A642B01D90323ECE1534B1D
:1014FC001B6803F40033002BF0D100E000BF7B68C5
:10150C001B6803F00203002B63D04C4B5B6803F0A9
:10151C000C03002B0BD0494B5B6803F00C03082B1E
:10152C001CD1464B5B6803F48033002B16D1434B24
:10153C001B6803F00203002B05D07B681B69012B91
:10154C0001D00123C0E13D4B1B6823F0F8027B68FE
:10155C005B69DB00394913430B603AE07B681B691C
:10156C00002B20D0364B01221A60FFF733F938617B
:10157C0008E0FFF72FF902463B69D31A022B01D979
:10158C000323A1E12D4B1B6803F00203002BF0D0C9
:10159C002A4B1B6823F0F8027B685B69DB00274948
:1015AC0013430B6015E0264B00221A60FFF712F96B
:1015BC00386108E0FFF70EF902463B69D31A022B9B
:1015CC0001D9032380E11D4B1B6803F00203002BA0
:1015DC00F0D17B681B6803F00803002B3AD07B68C2
:1015EC009B69002B19D0174B01221A60FFF7F2F8F8
:1015FC00386108E0FFF7EEF802463B69D31A022B7C
:10160C0001D9032360E10D4B5B6A03F00203002B4D
:10161C00F0D0012000F09CFA1CE00A4B00221A606A
:10162C00FFF7D8F838610FE0FFF7D4F802463B69B2
:10163C00D31A022B08D9032346E100BF0010024045
:10164C000000424280044242924B5B6A03F0020368
:10165C00002BE9D17B681B6803F00403002B00F01E
:10166C00A6800023FB758B4BDB6903F08053002BAA
:10167C000DD1884BDB69874A43F08053D361854B8E
:10168C00DB6903F08053BB60BB680123FB75824BA5
:10169C001B6803F48073002B18D17F4B1B687E4AA8
:1016AC0043F480731360FFF795F8386108E0FFF797
:1016BC0091F802463B69D31A642B01D9032303E149
:1016CC00754B1B6803F48073002BF0D07B68DB68D0
:1016DC00012B06D16F4B1B6A6E4A43F00103136258
:1016EC002DE07B68DB68002B0CD16A4B1B6A694AC6
:1016FC0023F001031362674B1B6A664A23F0040351
:10170C0013621CE07B68DB68052B0CD1614B1B6AF8
:10171C00604A43F0040313625E4B1B6A5D4A43F05C
:10172C00010313620BE05B4B1B6A5A4A23F0010363
:10173C001362584B1B6A574A23F0040313627B68ED
:10174C00DB68002B15D0FFF745F838610AE0FFF78E
:10175C0041F802463B69D31A41F28832934201D9CF
:10176C000323B1E04B4B1B6A03F00203002BEED0BA
:10177C0014E0FFF72FF838610AE0FFF72BF8024668
:10178C003B69D31A41F28832934201D903239BE07F
:10179C00404B1B6A03F00203002BEED1FB7D012BA7
:1017AC0005D13C4BDB693B4A23F08053D3617B680A
:1017BC00DB69002B00F08780364B5B6803F00C0371
:1017CC00082B61D07B68DB69022B46D1334B00229E
:1017DC001A60FEF7FFFF386108E0FEF7FBFF0246D8
:1017EC003B69D31A022B01D903236DE0294B1B68EB
:1017FC0003F00073002BF0D17B681B6AB3F5803FBC
:10180C0008D1244B5B6823F400327B689B68214928
:10181C0013434B601F4B5B6823F474127B68196A8B
:10182C007B685B6A0B431B4913434B601B4B0122C8
:10183C001A60FEF7CFFF386108E0FEF7CBFF0246D7
:10184C003B69D31A022B01D903233DE0114B1B68D2
:10185C0003F00073002BF0D035E0104B00221A601F
:10186C00FEF7B8FF386108E0FEF7B4FF02463B69AB
:10187C00D31A022B01D9032326E0064B1B6803F075
:10188C000073002BF0D11EE07B68DB69012B07D1C4
:10189C00012319E000100240007000406000424239
:1018AC000B4B5B68FB60FB6803F480327B681B6A44
:1018BC009A4206D1FB6803F470127B685B6A9A4209
:1018CC0001D0012300E0002318461837BD4680BD27
:1018DC000010024080B584B000AF786039607B683E
:1018EC00002B01D10123D0E06A4B1B6803F00703E6
:1018FC003A689A4210D9674B1B6823F00702654976
:10190C003B6813430B60634B1B6803F007033A6897
:10191C009A4201D00123B8E07B681B6803F00203F4
:10192C00002B20D07B681B6803F00403002B05D030
:10193C00594B5B68584A43F4E06353607B681B68FF
:10194C0003F00803002B05D0534B5B68524A43F459
:10195C0060535360504B5B6823F0F0027B689B68CC
:10196C004D4913434B607B681B6803F00103002B4C
:10197C0040D07B685B68012B07D1474B1B6803F495
:10198C000033002B15D101237FE07B685B68022BB1
:10199C0007D1414B1B6803F00073002B09D10123C5
:1019AC0073E03D4B1B6803F00203002B01D10123B4
:1019BC006BE0394B5B6823F003027B685B6836494C
:1019CC0013434B60FEF706FFF8600AE0FEF702FFD8
:1019DC000246FB68D31A41F28832934201D90323A1
:1019EC0053E02D4B5B6803F00C027B685B689B003B
:1019FC009A42EBD1274B1B6803F007033A689A42D3
:101A0C0010D2244B1B6823F0070222493B68134376
:101A1C000B60204B1B6803F007033A689A4201D015
:101A2C00012332E07B681B6803F00403002B08D011
:101A3C00194B5B6823F4E0627B68DB68164913433F
:101A4C004B607B681B6803F00803002B09D0124B1A
:101A5C005B6823F460527B681B69DB000E491343FF
:101A6C004B6000F021F802460B4B5B681B0903F03E
:101A7C000F030A49CB5C22FA03F3094A1360094BA2
:101A8C001B681846FEF764FE002318461037BD4647
:101A9C0080BD00BF0020024000100240002700085B
:101AAC00780000207C00002080B487B000AF0023B9
:101ABC00FB600023BB6000237B6100237B60002361
:101ACC003B611E4B5B68FB60FB6803F00C03042B53
:101ADC0002D0082B03D027E0194B3B6127E0FB68B1
:101AEC009B0C03F00F03174AD35C7B60FB6803F479
:101AFC008033002B10D0114B5B685B0C03F001039F
:101B0C00114AD35CBB607B680D4A03FB02F2BB68D5
:101B1C00B2FBF3F37B6104E07B680C4A02FB03F33A
:101B2C007B617B693B6102E0054B3B6100BF3B691C
:101B3C0018461C37BD4680BC704700BF00100240E1
:101B4C0000127A00102700082027000800093D0029
:101B5C0080B485B000AF78600A4B1B680A4AA2FBC0
:101B6C0003235B0A7A6802FB03F3FB6000BFFB688C
:101B7C005A1EFA60002BF9D100BF00BF1437BD46C6
:101B8C0080BC704778000020D34D621080B586B0C1
:101B9C0000AF786000233B610023FB607B681B680F
:101BAC0003F00103002B7DD00023FB754F4BDB6949
:101BBC0003F08053002B0DD14C4BDB694B4A43F0A7
:101BCC008053D361494BDB6903F08053BB60BB6826
:101BDC000123FB75464B1B6803F48073002B18D153
:101BEC00434B1B68424A43F480731360FEF7F2FDCB
:101BFC00386108E0FEF7EEFD02463B69D31A642B10
:101C0C0001D903236DE03A4B1B6803F48073002B5E
:101C1C00F0D0364B1B6A03F44073FB60FB68002B5F
:101C2C002ED07B685B6803F44073FA689A4227D025
:101C3C002E4B1B6A23F44073FB602E4B01221A605F
:101C4C002C4B00221A60294AFB681362FB6803F0D4
:101C5C000103002B14D0FEF7BDFD38610AE0FEF73E
:101C6C00B9FD02463B69D31A41F28832934201D93D
:101C7C00032336E01D4B1B6A03F00203002BEED04E
:101C8C001A4B1B6A23F440727B685B681749134339
:101C9C000B62FB7D012B05D1144BDB69134A23F03E
:101CAC008053D3617B681B6803F00203002B08D0C0
:101CBC000E4B5B6823F440427B689B680B491343D3
:101CCC004B607B681B6803F01003002B08D0074B9C
:101CDC005B6823F480027B68DB68044913434B6028
:101CEC00002318461837BD4680BD00BF00100240C7
:101CFC00007000404004424280B582B000AF786072
:101D0C007B68002B01D1012341E07B6893F83D30C7
:101D1C00DBB2002B06D17B68002283F83C2078686C
:101D2C00FEF778FC7B68022283F83D207B681A68FA
:101D3C007B6804331946104600F09EFA7B6801223A
:101D4C0083F846207B68012283F83E207B680122C1
:101D5C0083F83F207B68012283F840207B680122B6
:101D6C0083F841207B68012283F842207B680122A2
:101D7C0083F843207B68012283F844207B6801228E
:101D8C0083F845207B68012283F83D200023184608
:101D9C000837BD4680BD000080B485B000AF7860C8
:101DAC007B6893F83D30DBB2012B01D001233AE084
:101DBC007B68022283F83D207B681B68DA687B68AD
:101DCC001B6842F00102DA607B681B68184A934278
:101DDC000ED07B681B68B3F1804F09D07B681B6801
:101DEC00144A934204D07B681B68134A934211D166
:101DFC007B681B689B6803F00703FB60FB68062B82
:101E0C0010D07B681B681A687B681B6842F0010263
:101E1C001A6007E07B681B681A687B681B6842F0D5
:101E2C0001021A60002318461437BD4680BC704767
:101E3C00002C0140000400400008004080B584B034
:101E4C0000AF78607B681B68DB68FB607B681B6895
:101E5C001B69BB60BB6803F00203002B20D0FB683E
:101E6C0003F00203002B1BD07B681B686FF002028F
:101E7C001A617B6801221A777B681B689B6903F0E7
:101E8C000303002B03D0786800F0DAF905E07868DA
:101E9C0000F0CDF9786800F0DCF97B6800221A7745
:101EAC00BB6803F00403002B20D0FB6803F0040391
:101EBC00002B1BD07B681B686FF004021A617B68D7
:101ECC0002221A777B681B689B6903F44073002B12
:101EDC0003D0786800F0B4F905E0786800F0A7F951
:101EEC00786800F0B6F97B6800221A77BB6803F0BB
:101EFC000803002B20D0FB6803F00803002B1BD039
:101F0C007B681B686FF008021A617B6804221A77E1
:101F1C007B681B68DB6903F00303002B03D0786834
:101F2C0000F08EF905E0786800F081F9786800F02F
:101F3C0090F97B6800221A77BB6803F01003002B22
:101F4C0020D0FB6803F01003002B1BD07B681B68B0
:101F5C006FF010021A617B6808221A777B681B6885
:101F6C00DB6903F44073002B03D0786800F068F948
:101F7C0005E0786800F05BF9786800F06AF97B6836
:101F8C0000221A77BB6803F00103002B0CD0FB680E
:101F9C0003F00103002B07D07B681B686FF0010274
:101FAC001A617868FEF7CCF8BB6803F08003002B4D
:101FBC000CD0FB6803F08003002B07D07B681B68F8
:101FCC006FF080021A61786800F053FBBB6803F075
:101FDC004003002B0CD0FB6803F04003002B07D010
:101FEC007B681B686FF040021A61786800F03AF960
:101FFC00BB6803F02003002B0CD0FB6803F020031C
:10200C00002B07D07B681B686FF020021A61786880
:10201C0000F026FB00BF1037BD4680BD80B584B0F4
:10202C0000AF786039600023FB737B6893F83C3019
:10203C00012B01D10223B4E07B68012283F83C2000
:10204C007B68022283F83D207B681B689B68BB6021
:10205C00BB6823F07703BB60BB6823F47F43BB6092
:10206C007B681B68BA689A603B681B68B3F5005FB5
:10207C003ED0B3F5005F00F28780B3F5805F00F0CF
:10208C008680B3F5805F7FD8702B1AD0702B7BD8ED
:10209C00602B50D0602B77D8502B3CD0502B73D862
:1020AC00402B58D0402B6FD8302B64D0302B6BD8B2
:1020BC00202B60D0202B67D8002B5CD0102B5AD053
:1020CC0062E07B6818683B6899683B685A683B68B3
:1020DC00DB6800F047FA7B681B689B68BB60BB68D9
:1020EC0043F07703BB607B681B68BA689A604FE06B
:1020FC007B6818683B6899683B685A683B68DB6882
:10210C0000F030FA7B681B689A687B681B6842F4A5
:10211C0080429A603CE07B6818683B6859683B6871
:10212C00DB681A4600F0A7F97B681B68502118463B
:10213C0000F0FEF92CE07B6818683B6859683B6836
:10214C00DB681A4600F0C5F97B681B6860211846ED
:10215C0000F0EEF91CE07B6818683B6859683B6836
:10216C00DB681A4600F087F97B681B68402118462B
:10217C0000F0DEF90CE07B681A683B681B681946B6
:10218C00104600F0D5F903E00123FB7300E000BF1B
:10219C007B68012283F83D207B68002283F83C2079
:1021AC00FB7B18461037BD4680BD80B582B000AFB2
:1021BC00786039607B6893F83C30012B01D10223A5
:1021CC0031E07B68012283F83C207B68022283F893
:1021DC003D203968786800F0BDF80346002B09D023
:1021EC007B68012283F83D207B68002283F83C2029
:1021FC00012318E07B681B68DA687B681B6822F097
:10220C004002DA607B681B68DA687B681B6822F422
:10221C008042DA607B68012283F83D207B680022D3
:10222C0083F83C20002318460837BD4680BD80B497
:10223C0083B000AF786000BF0C37BD4680BC7047E0
:10224C0080B483B000AF786000BF0C37BD4680BC53
:10225C00704780B483B000AF786000BF0C37BD46C8
:10226C0080BC704780B483B000AF786000BF0C377F
:10227C00BD4680BC7047000080B485B000AF78606C
:10228C0039607B681B68FB607B682F4A93420BD0DC
:10229C007B68B3F1804F07D07B682C4A934203D004
:1022AC007B682B4A934208D1FB6823F07003FB60D8
:1022BC003B685B68FA681343FB607B68224A934275
:1022CC000BD07B68B3F1804F07D07B681F4A9342D9
:1022DC0003D07B681E4A934208D1FB6823F44073F9
:1022EC00FB603B68DB68FA681343FB60FB6823F018
:1022FC0080023B685B691343FB607B68FA681A6079
:10230C003B689A687B68DA623B681A687B689A62F9
:10231C007B680D4A934203D13B681A697B681A6348
:10232C007B6801225A617B681B6903F00103002B57
:10233C0005D07B681B6923F001027B681A6100BF22
:10234C001437BD4680BC7047002C0140000400408F
:10235C000008004080B586B000AF7860396000237B
:10236C00FB757B681B689B683B613B6923F07003C2
:10237C003B613B685B683A6913433B613B6923F003
:10238C0007033B613B681B683A6913433B617B68FD
:10239C001B683A699A603B685B68702B1AD0702B8B
:1023AC0060D8602B54D0602B5CD8502B46D0502B6F
:1023BC0058D8402B19D0402B54D8302B55D0302B1B
:1023CC0050D8202B51D0202B4CD8002B4DD0102B7B
:1023DC004BD047E07B6818683B68D9683B689A68C3
:1023EC003B681B6900F0BEF840E03B681B68052B9E
:1023FC0001D101233BE07B681B681B6AFB607B6897
:10240C001B681A6A7B681B6822F001021A627B68DF
:10241C001B689B69BB60BB6823F0F003BB603B6827
:10242C001B691B01BA681343BB607B681B68BA68E5
:10243C009A617B681B68FA681A6217E07B681868F7
:10244C003B6899683B681B691A4600F014F80DE06C
:10245C007B6818683B6899683B681B691A4600F0F2
:10246C0038F803E00123FB7500E000BFFB7D184644
:10247C001837BD4680BD80B487B000AFF860B96036
:10248C007A60FB681B6A7B61FB681B6A23F00102A4
:10249C00FB681A62FB689B693B613B6923F0F003A4
:1024AC003B617B681B013A6913433B617B6923F0F9
:1024BC000A037B617A69BB6813437B61FB683A69E9
:1024CC009A61FB687A691A6200BF1C37BD4680BCF2
:1024DC00704780B487B000AFF860B9607A60FB6871
:1024EC001B6A7B61FB681B6A23F01002FB681A6293
:1024FC00FB689B693B613B6923F470433B617B68E0
:10250C001B033A6913433B617B6923F0A0037B6196
:10251C00BB681B017A6913437B61FB683A699A615A
:10252C00FB687A691A6200BF1C37BD4680BC7047D5
:10253C0080B485B000AF786039607B689B68FB60C5
:10254C00FB6823F07003FB603A68FB68134343F0AD
:10255C000703FB607B68FA689A6000BF1437BD46BE
:10256C0080BC704780B487B000AFF860B9607A6007
:10257C003B60FB689B687B617B6923F47F437B61D9
:10258C003B681A027B681A43BB6813437A6913438E
:10259C007B61FB687A699A6000BF1C37BD4680BCC2
:1025AC007047000080B485B000AF786039607B68FC
:1025BC0093F83C30012B01D1022346E07B680122C9
:1025CC0083F83C207B68022283F83D207B681B68E3
:1025DC005B68FB607B681B689B68BB60FB6823F0D7
:1025EC007003FB603B681B68FA681343FB607B68F5
:1025FC001B68FA685A607B681B68164A93420ED0B7
:10260C007B681B68B3F1804F09D07B681B68124A4A
:10261C00934204D07B681B68104A93420CD1BB6870
:10262C0023F08003BB603B685B68BA681343BB60F4
:10263C007B681B68BA689A607B68012283F83D202E
:10264C007B68002283F83C20002318461437BD46D3
:10265C0080BC7047002C0140000400400008004082
:10266C0080B483B000AF786000BF0C37BD4680BC2F
:10267C00704780B483B000AF786000BF0C37BD46A4
:10268C0080BC704703460244934200D1704703F864
:10269C00011BF9E770B500260C4D0D4C641BA41002
:1026AC00A64209D100F01AF800260A4D0A4C641B08
:1026BC00A410A64205D170BD55F8043B98470136CD
:1026CC00EEE755F8043B98470136F2E7242700085B
:1026DC00242700082427000828270008F8B500BF85
:1026EC00F8BC08BC9E467047F8B500BFF8BC08BCE7
:0426FC009E4670473F
:1027000000000000000000000102030406070809A1
:1027100002030405060708090A0B0C0D0E0F101022
:0427200001020000B2
:042724003101000877
:042728000D01000897
:10272C000001000100010001000100010001000195
:10273C000001000100010001000100010001000185
:10274C000001000100010001000100010001000175
:10275C000001000100010001000100010001000165
:10276C000001000100010001000100010001000155
:10277C000001000100010001000100010001000145
:10278C000001000100010001000100010001000135
:10279C00000100010101010100127A00100000008B
:0427AC000100000028
:04000005080006E504
:00000001FF
